:03000000020B18D8
:0C0B1800787FE4F6D8FD758142020B5F87
:100CBD0053636F72653A20202020202020200048A9
:100CCD006967682053636F72653A2020200047657D
:100CDD0074205265616479002A2A2A2A2A2A2A2A2E
:050CED00002A0D0A00C1
:100C8000C101C100C10209272A2A2A2A2A2A2A2A9E
:100C90000009302A2A2A2A2A2A2A2A00033E00008A
:100CA00000033B000000C1030223000002210000FA
:0C0CB0000225000002390003024100038D
:100C3900E4F5A0C282C280C2817F38FE120E287FED
:100C4900047E00120D8A7F067E00120E287F047E24
:100C590000120D8A7F0C7E00120E287F047E00127E
:100C69000D8A7F017E00120E287F047E00120D8AF4
:070C79007F807E00020E28BF
:0A0D8000C281D2828FA07F0A7E009C
:100D8A00E4FDFCC3ED9FEC9E5015E4FBFA0BBB009F
:0F0D9A00010ABA01F8BB7EF50DBD00010C80E423
:010DA9002227
:100D24008E098F0A8B0B8A0C890D7C007D0A120AAE
:100D34009DEF2430120A69AE09AF0A7C007D0A12C5
:100D44000A9DED2430AB0BAA0CA90D900001020AF8
:010D54007B23
:0B0E1D007F017E00120E287F807E0007
:080E2800C280120D80C282227B
:080E6C00D280120D80C2822227
:060D55007BFF7A0C79E53A
:100D5B008B098A0A890BAB09AA0AA90B120A5060E4
:100D6B0013050BE50B7002050A14F9120A50FF125A
:050D7B000E6C80E22275
:100E3000758920758DCB759850D28ED2ACD2AF22E9
:080E74008F993001FDC201223B
:100DAA008B098A0A890BAB09AA0AA90B120A506095
:100DBA0013050BE50B7002050A14F9120A50FF120B
:050DCA000E7480E2221E
:0F0E4000E4FF2000063002FA7F7A22C200AF9949
:010E4F002280
:03002300020E507A
:100E5000309905C299D20132309804C298D200323A
:100DCF00120E1D7B007A007927120D5B7FC07E000B
:0C0DDF00120E287B007A007930020D5BB8
:100BA400853941853A42E53A5401FD7C00AE39E588
:100BB4003A7803CEC313CE13D8F9FBAA06E539C39A
:100BC40013F539E53A13F53AEC6AFEED6B7803C395
:100BD40033CE33CED8F9253AF53AEE3539F539E541
:0C0BE4003A2542FF754100EF540FF54226
:010BF00022E2
:100CF200C3E5429408E541940050047427800274CD
:100D0200282542F8762A120BA4C3E5429408E5414D
:100D1200940050047427800274282542F8766D02EC
:020D22000DCFF3
:100DEB00E526B4310CE525B40107D203D202C2A922
:0C0DFB00220526E52670020525C28D2287
:03000B00020E6082
:0C0E6000C0E0C0D0120DEBD0D0D0E032CA
:100BF100120E1D7BFF7A0C79BD120D5B7B007A0012
:100C0100793BAF22AE21120D247B007A00793B1291
:100C11000D5B7FC07E00120E287BFF7A0C79CC120F
:100C21000D5B7B007A00793EAF24AE23120D247B4D
:080C3100007A00793E020D5B20
:100E07004389015389F1E4F58CF58AF525F526D256
:060E17008CD2AFD2A9222B
:10080000E4F508120C39120E30E4F523F524C3E5A3
:10081000429408E54194005004742780027428250E
:1008200042F8766D120E1D7BFF7A0C79DB120D5BA0
:100830007FD07E07120D8A120E1D120D557FC07ECD
:1008400000120E28120D557BFF7A0C79EE120DAABC
:100850007FB87E0B120D8AE4F521F522C203C20295
:10086000120E07120DCFC200300303020A2B120E24
:10087000408F08E508120AF209726109A36408DCD6
:100880006509B86609CD6709E26809596909F76A17
:100890000A0C6B08AC7108F572098B73090E7409A8
:1008A000407508C37709277900000A1FE5424541D2
:1008B0006003020A1F120CF20522E522704D052189
:1008C000020A1FE542640145416003020A1F120C3F
:1008D000F20522E52270020521020A1FE5426402A8
:1008E00045416003020A1F120CF20522E522700244
:1008F0000521020A1FE542640345416003020A1F05
:10090000120CF20522E52270020521020A1FE542BF
:10091000640445416003020A1F120CF20522E5221D
:1009200070020521020A1FE5426405454160030289
:100930000A1F120CF20522E52270020521020A1F8D
:10094000E542640645416003020A1F120CF20522CB
:10095000E52270020521020A1FE542640745416055
:1009600003020A1F120CF20522E522700205210281
:100970000A1FE542640845416003020A1F120CF297
:100980000522E52270020521020A1FE5426409459D
:10099000416003020A1F120CF20522E522700205D3
:1009A00021807CE542640A45417074120CF20522F4
:1009B000E522706B05218067E542640B4541705F5D
:1009C000120CF20522E522705605218052E54264A0
:1009D0000C4541704A120CF20522E52270410521B6
:1009E000803DE542640D45417035120CF20522E56B
:1009F00022702C05218028E542640E4541702012AA
:100A00000CF20522E522701705218013E542640FE0
:100A10004541700B120CF20522E52270020521C23D
:100A2000007F027E00120D8A020868120D86C3E55F
:100A3000249522E52395215006852123852224C271
:100A400003C202120BF17FB87E0B120D8A0208243A
:100B2400020800E493A3F8E493A34003F68001F2DF
:100B340008DFF48029E493A3F85407240CC8C333D2
:100B4400C4540F4420C8834004F456800146F6DFA1
:100B5400E4800B0102040810204080900C80E47EA5
:100B6400019360BCA3FF543F30E509541FFEE49396
:100B7400A360010ECF54C025E060A840B8E493A35D
:100B8400FAE493A3F8E493A3C8C582C8CAC583CA88
:100B9400F0A3C8C582C8CAC583CADFE9DEE780BE40
:010CBC000037
:100A5000BB010689828A83E0225002E722BBFE02A4
:090A6000E32289828A83E49322D7
:100A6900BB010689828A83F0225002F722BBFE016C
:020A7900F32266
:100A7B00F8BB010DE58229F582E5833AF583E8F0B1
:100A8B00225006E92582C8F622BBFE05E92582C85D
:020A9B00F22245
:100A9D00BC000BBE0029EF8DF084FFADF022E4CC3D
:100AAD00F875F008EF2FFFEE33FEEC33FCEE9DEC06
:100ABD00984005FCEE9DFE0FD5F0E9E4CEFD22ED4C
:100ACD00F8F5F0EE8420D21CFEADF075F008EF2F96
:100ADD00FFED33FD4007985006D5F0F222C398FD87
:050AED000FD5F0EA2224
:100AF200D083D082F8E4937012740193700DA3A393
:100B020093F8740193F5828883E4737402936860A6
:060B1200EFA3A3A380DFA6
:00000001FF
